{
  "_format": "hh-sol-artifact-1",
  "contractName": "Voting",
  "sourceName": "contracts/Elect.sol",
  "abi": [
    {
      "inputs": [],
      "stateMutability": "nonpayable",
      "type": "constructor"
    },
    {
      "anonymous": false,
      "inputs": [
        {
          "indexed": true,
          "internalType": "address",
          "name": "voter",
          "type": "address"
        },
        {
          "indexed": false,
          "internalType": "uint256",
          "name": "electionID",
          "type": "uint256"
        },
        {
          "indexed": false,
          "internalType": "uint256",
          "name": "candidateIndex",
          "type": "uint256"
        }
      ],
      "name": "Voted",
      "type": "event"
    },
    {
      "inputs": [
        {
          "internalType": "uint256",
          "name": "",
          "type": "uint256"
        }
      ],
      "name": "electionDetails",
      "outputs": [
        {
          "internalType": "uint256",
          "name": "electionID",
          "type": "uint256"
        },
        {
          "internalType": "string",
          "name": "description",
          "type": "string"
        },
        {
          "internalType": "uint256",
          "name": "votingStart",
          "type": "uint256"
        },
        {
          "internalType": "uint256",
          "name": "votingEnd",
          "type": "uint256"
        }
      ],
      "stateMutability": "view",
      "type": "function"
    },
    {
      "inputs": [
        {
          "internalType": "uint256",
          "name": "",
          "type": "uint256"
        }
      ],
      "name": "electionIDs",
      "outputs": [
        {
          "internalType": "uint256",
          "name": "",
          "type": "uint256"
        }
      ],
      "stateMutability": "view",
      "type": "function"
    },
    {
      "inputs": [],
      "name": "getAllElectionDetails",
      "outputs": [
        {
          "components": [
            {
              "internalType": "uint256",
              "name": "electionID",
              "type": "uint256"
            },
            {
              "internalType": "string",
              "name": "description",
              "type": "string"
            },
            {
              "components": [
                {
                  "internalType": "string",
                  "name": "name",
                  "type": "string"
                },
                {
                  "internalType": "uint256",
                  "name": "voteCount",
                  "type": "uint256"
                }
              ],
              "internalType": "struct Voting.Candidate[]",
              "name": "candidates",
              "type": "tuple[]"
            },
            {
              "internalType": "uint256",
              "name": "votingStart",
              "type": "uint256"
            },
            {
              "internalType": "uint256",
              "name": "votingEnd",
              "type": "uint256"
            },
            {
              "internalType": "uint256[]",
              "name": "currentVoteCounts",
              "type": "uint256[]"
            }
          ],
          "internalType": "struct Voting.Election[]",
          "name": "",
          "type": "tuple[]"
        }
      ],
      "stateMutability": "view",
      "type": "function"
    },
    {
      "inputs": [
        {
          "internalType": "uint256",
          "name": "_electionID",
          "type": "uint256"
        }
      ],
      "name": "getCandidateDetailsByElectionID",
      "outputs": [
        {
          "internalType": "string[]",
          "name": "",
          "type": "string[]"
        },
        {
          "internalType": "uint256[]",
          "name": "",
          "type": "uint256[]"
        }
      ],
      "stateMutability": "view",
      "type": "function"
    },
    {
      "inputs": [
        {
          "internalType": "uint256",
          "name": "_electionID",
          "type": "uint256"
        }
      ],
      "name": "getTimeLeftFormatted",
      "outputs": [
        {
          "internalType": "string",
          "name": "",
          "type": "string"
        }
      ],
      "stateMutability": "view",
      "type": "function"
    },
    {
      "inputs": [
        {
          "internalType": "string",
          "name": "_description",
          "type": "string"
        },
        {
          "internalType": "string[]",
          "name": "_candidateNames",
          "type": "string[]"
        },
        {
          "internalType": "uint256",
          "name": "_durationInMinutes",
          "type": "uint256"
        }
      ],
      "name": "launchElection",
      "outputs": [],
      "stateMutability": "nonpayable",
      "type": "function"
    },
    {
      "inputs": [],
      "name": "nextElectionID",
      "outputs": [
        {
          "internalType": "uint256",
          "name": "",
          "type": "uint256"
        }
      ],
      "stateMutability": "view",
      "type": "function"
    },
    {
      "inputs": [
        {
          "internalType": "uint256",
          "name": "_electionID",
          "type": "uint256"
        },
        {
          "internalType": "uint256",
          "name": "_candidateIndex",
          "type": "uint256"
        }
      ],
      "name": "vote",
      "outputs": [],
      "stateMutability": "nonpayable",
      "type": "function"
    },
    {
      "inputs": [
        {
          "internalType": "address",
          "name": "",
          "type": "address"
        }
      ],
      "name": "voters",
      "outputs": [
        {
          "internalType": "bool",
          "name": "",
          "type": "bool"
        }
      ],
      "stateMutability": "view",
      "type": "function"
    }
  ],
  "bytecode": "0x60806040526001600355348015601457600080fd5b5033600260006101000a81548173ffffffffffffffffffffffffffffffffffffffff021916908373ffffffffffffffffffffffffffffffffffffffff160217905550612423806100656000396000f3fe608060405234801561001057600080fd5b50600436106100925760003560e01c8063b384abef11610066578063b384abef14610148578063c89a7d5a14610164578063df53a9ef14610180578063e6ab51ad1461019e578063ea7b04d8146101ce57610092565b806253594714610097578063125e1cfe146100ca578063650cc7c2146100fa578063a3ec138d14610118575b600080fd5b6100b160048036038101906100ac91906110a2565b6101ff565b6040516100c1949392919061116e565b60405180910390f35b6100e460048036038101906100df91906110a2565b6102b7565b6040516100f191906111ba565b60405180910390f35b610102610406565b60405161010f919061153c565b60405180910390f35b610132600480360381019061012d91906115bc565b6106e6565b60405161013f9190611604565b60405180910390f35b610162600480360381019061015d919061161f565b610706565b005b61017e6004803603810190610179919061187a565b6109bc565b005b610188610bfc565b6040516101959190611905565b60405180910390f35b6101b860048036038101906101b391906110a2565b610c02565b6040516101c59190611905565b60405180910390f35b6101e860048036038101906101e391906110a2565b610c26565b6040516101f6929190611a51565b60405180910390f35b600060205280600052604060002060009150905080600001549080600101805461022890611ab7565b80601f016020809104026020016040519081016040528092919081815260200182805461025490611ab7565b80156102a15780601f10610276576101008083540402835291602001916102a1565b820191906000526020600020905b81548152906001019060200180831161028457829003601f168201915b5050505050908060030154908060040154905084565b60606000821180156102ca575060035482105b610309576040517f08c379a000000000000000000000000000000000000000000000000000000000815260040161030090611b34565b60405180910390fd5b6000806000848152602001908152602001600020905080600401544210610368576040518060400160405280600881526020017f30303a30303a3030000000000000000000000000000000000000000000000000815250915050610401565b600042826004015461037a9190611b83565b90506000610e108261038c9190611be6565b90506000603c610e10846103a09190611c17565b6103aa9190611be6565b90506000603c846103bb9190611c17565b90506103c683610e77565b6103cf83610e77565b6103d883610e77565b6040516020016103ea93929190611cd0565b604051602081830303815290604052955050505050505b919050565b6060600060018054905067ffffffffffffffff81111561042957610428611669565b5b60405190808252806020026020018201604052801561046257816020015b61044f611022565b8152602001906001900390816104475790505b50905060005b6001805490508110156106de576000806001838154811061048c5761048b611d17565b5b906000526020600020015481526020019081526020016000206040518060c0016040529081600082015481526020016001820180546104ca90611ab7565b80601f01602080910402602001604051908101604052809291908181526020018280546104f690611ab7565b80156105435780601f1061051857610100808354040283529160200191610543565b820191906000526020600020905b81548152906001019060200180831161052657829003601f168201915b5050505050815260200160028201805480602002602001604051908101604052809291908181526020016000905b8282101561063f57838290600052602060002090600202016040518060400160405290816000820180546105a490611ab7565b80601f01602080910402602001604051908101604052809291908181526020018280546105d090611ab7565b801561061d5780601f106105f25761010080835404028352916020019161061d565b820191906000526020600020905b81548152906001019060200180831161060057829003601f168201915b5050505050815260200160018201548152505081526020019060010190610571565b5050505081526020016003820154815260200160048201548152602001600582018054806020026020016040519081016040528092919081815260200182805480156106aa57602002820191906000526020600020905b815481526020019060010190808311610696575b5050505050815250508282815181106106c6576106c5611d17565b5b60200260200101819052508080600101915050610468565b508091505090565b60046020528060005260406000206000915054906101000a900460ff1681565b600082118015610717575060035482105b610756576040517f08c379a000000000000000000000000000000000000000000000000000000000815260040161074d90611b34565b60405180910390fd5b6000806000848152602001908152602001600020905080600301544210156107b3576040517f08c379a00000000000000000000000000000000000000000000000000000000081526004016107aa90611d92565b60405180910390fd5b80600401544211156107fa576040517f08c379a00000000000000000000000000000000000000000000000000000000081526004016107f190611dfe565b60405180910390fd5b600460003373ffffffffffffffffffffffffffffffffffffffff1673ffffffffffffffffffffffffffffffffffffffff16815260200190815260200160002060009054906101000a900460ff1615610887576040517f08c379a000000000000000000000000000000000000000000000000000000000815260040161087e90611e6a565b60405180910390fd5b806002018054905082106108d0576040517f08c379a00000000000000000000000000000000000000000000000000000000081526004016108c790611ed6565b60405180910390fd5b60018160020183815481106108e8576108e7611d17565b5b906000526020600020906002020160010160008282546109089190611ef6565b925050819055506001600460003373ffffffffffffffffffffffffffffffffffffffff1673ffffffffffffffffffffffffffffffffffffffff16815260200190815260200160002060006101000a81548160ff0219169083151502179055503373ffffffffffffffffffffffffffffffffffffffff167fea66f58e474bc09f580000e81f31b334d171db387d0c6098ba47bd897741679b84846040516109af929190611f2a565b60405180910390a2505050565b600260009054906101000a900473ffffffffffffffffffffffffffffffffffffffff1673ffffffffffffffffffffffffffffffffffffffff163373ffffffffffffffffffffffffffffffffffffffff1614610a4c576040517f08c379a0000000000000000000000000000000000000000000000000000000008152600401610a4390611fc5565b60405180910390fd5b6000825111610a90576040517f08c379a0000000000000000000000000000000000000000000000000000000008152600401610a8790612057565b60405180910390fd5b600080600060035481526020019081526020016000209050600354816000018190555083816001019081610ac49190612223565b5060005b8351811015610b8957816002016040518060400160405280868481518110610af357610af2611d17565b5b60200260200101518152602001600081525090806001815401808255809150506001900390600052602060002090600202016000909190919091506000820151816000019081610b439190612223565b5060208201518160010155505081600501600090806001815401808255809150506001900390600052602060002001600090919091909150558080600101915050610ac8565b50428160030181905550603c82610ba091906122f5565b42610bab9190611ef6565b81600401819055506001600354908060018154018082558091505060019003906000526020600020016000909190919091505560036000815480929190610bf190612337565b919050555050505050565b60035481565b60018181548110610c1257600080fd5b906000526020600020016000915090505481565b606080600083118015610c3a575060035483105b610c79576040517f08c379a0000000000000000000000000000000000000000000000000000000008152600401610c7090611b34565b60405180910390fd5b6000806000858152602001908152602001600020905060008160020180549050905060008167ffffffffffffffff811115610cb757610cb6611669565b5b604051908082528060200260200182016040528015610cea57816020015b6060815260200190600190039081610cd55790505b50905060008267ffffffffffffffff811115610d0957610d08611669565b5b604051908082528060200260200182016040528015610d375781602001602082028036833780820191505090505b50905060005b83811015610e6757846002018181548110610d5b57610d5a611d17565b5b90600052602060002090600202016000018054610d7790611ab7565b80601f0160208091040260200160405190810160405280929190818152602001828054610da390611ab7565b8015610df05780601f10610dc557610100808354040283529160200191610df0565b820191906000526020600020905b815481529060010190602001808311610dd357829003601f168201915b5050505050838281518110610e0857610e07611d17565b5b6020026020010181905250846002018181548110610e2957610e28611d17565b5b906000526020600020906002020160010154828281518110610e4e57610e4d611d17565b5b6020026020010181815250508080600101915050610d3d565b5081819550955050505050915091565b6060600a821015610eb157610e8b82610ec2565b604051602001610e9b91906123cb565b6040516020818303038152906040529050610ebd565b610eba82610ec2565b90505b919050565b606060008203610f09576040518060400160405280600181526020017f3000000000000000000000000000000000000000000000000000000000000000815250905061101d565b600082905060005b60008214610f3b578080610f2490612337565b915050600a82610f349190611be6565b9150610f11565b60008167ffffffffffffffff811115610f5757610f56611669565b5b6040519080825280601f01601f191660200182016040528015610f895781602001600182028036833780820191505090505b5090505b6000851461101657600182610fa29190611b83565b9150600a85610fb19190611c17565b6030610fbd9190611ef6565b60f81b818381518110610fd357610fd2611d17565b5b60200101907effffffffffffffffffffffffffffffffffffffffffffffffffffffffffffff1916908160001a905350600a8561100f9190611be6565b9450610f8d565b8093505050505b919050565b6040518060c001604052806000815260200160608152602001606081526020016000815260200160008152602001606081525090565b6000604051905090565b600080fd5b600080fd5b6000819050919050565b61107f8161106c565b811461108a57600080fd5b50565b60008135905061109c81611076565b92915050565b6000602082840312156110b8576110b7611062565b5b60006110c68482850161108d565b91505092915050565b6110d88161106c565b82525050565b600081519050919050565b600082825260208201905092915050565b60005b838110156111185780820151818401526020810190506110fd565b60008484015250505050565b6000601f19601f8301169050919050565b6000611140826110de565b61114a81856110e9565b935061115a8185602086016110fa565b61116381611124565b840191505092915050565b600060808201905061118360008301876110cf565b81810360208301526111958186611135565b90506111a460408301856110cf565b6111b160608301846110cf565b95945050505050565b600060208201905081810360008301526111d48184611135565b905092915050565b600081519050919050565b600082825260208201905092915050565b6000819050602082019050919050565b6112118161106c565b82525050565b600082825260208201905092915050565b6000611233826110de565b61123d8185611217565b935061124d8185602086016110fa565b61125681611124565b840191505092915050565b600081519050919050565b600082825260208201905092915050565b6000819050602082019050919050565b600060408301600083015184820360008601526112aa8282611228565b91505060208301516112bf6020860182611208565b508091505092915050565b60006112d6838361128d565b905092915050565b6000602082019050919050565b60006112f682611261565b611300818561126c565b9350836020820285016113128561127d565b8060005b8581101561134e578484038952815161132f85826112ca565b945061133a836112de565b925060208a01995050600181019050611316565b50829750879550505050505092915050565b600081519050919050565b600082825260208201905092915050565b6000819050602082019050919050565b60006113988383611208565b60208301905092915050565b6000602082019050919050565b60006113bc82611360565b6113c6818561136b565b93506113d18361137c565b8060005b838110156114025781516113e9888261138c565b97506113f4836113a4565b9250506001810190506113d5565b5085935050505092915050565b600060c0830160008301516114276000860182611208565b506020830151848203602086015261143f8282611228565b9150506040830151848203604086015261145982826112eb565b915050606083015161146e6060860182611208565b5060808301516114816080860182611208565b5060a083015184820360a086015261149982826113b1565b9150508091505092915050565b60006114b2838361140f565b905092915050565b6000602082019050919050565b60006114d2826111dc565b6114dc81856111e7565b9350836020820285016114ee856111f8565b8060005b8581101561152a578484038952815161150b85826114a6565b9450611516836114ba565b925060208a019950506001810190506114f2565b50829750879550505050505092915050565b6000602082019050818103600083015261155681846114c7565b905092915050565b600073ffffffffffffffffffffffffffffffffffffffff82169050919050565b60006115898261155e565b9050919050565b6115998161157e565b81146115a457600080fd5b50565b6000813590506115b681611590565b92915050565b6000602082840312156115d2576115d1611062565b5b60006115e0848285016115a7565b91505092915050565b60008115159050919050565b6115fe816115e9565b82525050565b600060208201905061161960008301846115f5565b92915050565b6000806040838503121561163657611635611062565b5b60006116448582860161108d565b92505060206116558582860161108d565b9150509250929050565b600080fd5b600080fd5b7f4e487b7100000000000000000000000000000000000000000000000000000000600052604160045260246000fd5b6116a182611124565b810181811067ffffffffffffffff821117156116c0576116bf611669565b5b80604052505050565b60006116d3611058565b90506116df8282611698565b919050565b600067ffffffffffffffff8211156116ff576116fe611669565b5b61170882611124565b9050602081019050919050565b82818337600083830152505050565b6000611737611732846116e4565b6116c9565b90508281526020810184848401111561175357611752611664565b5b61175e848285611715565b509392505050565b600082601f83011261177b5761177a61165f565b5b813561178b848260208601611724565b91505092915050565b600067ffffffffffffffff8211156117af576117ae611669565b5b602082029050602081019050919050565b600080fd5b60006117d86117d384611794565b6116c9565b905080838252602082019050602084028301858111156117fb576117fa6117c0565b5b835b8181101561184257803567ffffffffffffffff8111156118205761181f61165f565b5b80860161182d8982611766565b855260208501945050506020810190506117fd565b5050509392505050565b600082601f8301126118615761186061165f565b5b81356118718482602086016117c5565b91505092915050565b60008060006060848603121561189357611892611062565b5b600084013567ffffffffffffffff8111156118b1576118b0611067565b5b6118bd86828701611766565b935050602084013567ffffffffffffffff8111156118de576118dd611067565b5b6118ea8682870161184c565b92505060406118fb8682870161108d565b9150509250925092565b600060208201905061191a60008301846110cf565b92915050565b600081519050919050565b600082825260208201905092915050565b6000819050602082019050919050565b60006119588383611228565b905092915050565b6000602082019050919050565b600061197882611920565b611982818561192b565b9350836020820285016119948561193c565b8060005b858110156119d057848403895281516119b1858261194c565b94506119bc83611960565b925060208a01995050600181019050611998565b50829750879550505050505092915050565b600082825260208201905092915050565b60006119fe82611360565b611a0881856119e2565b9350611a138361137c565b8060005b83811015611a44578151611a2b888261138c565b9750611a36836113a4565b925050600181019050611a17565b5085935050505092915050565b60006040820190508181036000830152611a6b818561196d565b90508181036020830152611a7f81846119f3565b90509392505050565b7f4e487b7100000000000000000000000000000000000000000000000000000000600052602260045260246000fd5b60006002820490506001821680611acf57607f821691505b602082108103611ae257611ae1611a88565b5b50919050565b7f456c656374696f6e20494420646f6573206e6f742065786973742e0000000000600082015250565b6000611b1e601b836110e9565b9150611b2982611ae8565b602082019050919050565b60006020820190508181036000830152611b4d81611b11565b9050919050565b7f4e487b7100000000000000000000000000000000000000000000000000000000600052601160045260246000fd5b6000611b8e8261106c565b9150611b998361106c565b9250828203905081811115611bb157611bb0611b54565b5b92915050565b7f4e487b7100000000000000000000000000000000000000000000000000000000600052601260045260246000fd5b6000611bf18261106c565b9150611bfc8361106c565b925082611c0c57611c0b611bb7565b5b828204905092915050565b6000611c228261106c565b9150611c2d8361106c565b925082611c3d57611c3c611bb7565b5b828206905092915050565b600081905092915050565b6000611c5e826110de565b611c688185611c48565b9350611c788185602086016110fa565b80840191505092915050565b7f3a00000000000000000000000000000000000000000000000000000000000000600082015250565b6000611cba600183611c48565b9150611cc582611c84565b600182019050919050565b6000611cdc8286611c53565b9150611ce782611cad565b9150611cf38285611c53565b9150611cfe82611cad565b9150611d0a8284611c53565b9150819050949350505050565b7f4e487b7100000000000000000000000000000000000000000000000000000000600052603260045260246000fd5b7f566f74696e6720686173206e6f742073746172746564207965742e0000000000600082015250565b6000611d7c601b836110e9565b9150611d8782611d46565b602082019050919050565b60006020820190508181036000830152611dab81611d6f565b9050919050565b7f566f74696e6720706572696f642068617320656e6465642e0000000000000000600082015250565b6000611de86018836110e9565b9150611df382611db2565b602082019050919050565b60006020820190508181036000830152611e1781611ddb565b9050919050565b7f596f75206861766520616c726561647920766f7465642e000000000000000000600082015250565b6000611e546017836110e9565b9150611e5f82611e1e565b602082019050919050565b60006020820190508181036000830152611e8381611e47565b9050919050565b7f496e76616c69642063616e64696461746520696e6465782e0000000000000000600082015250565b6000611ec06018836110e9565b9150611ecb82611e8a565b602082019050919050565b60006020820190508181036000830152611eef81611eb3565b9050919050565b6000611f018261106c565b9150611f0c8361106c565b9250828201905080821115611f2457611f23611b54565b5b92915050565b6000604082019050611f3f60008301856110cf565b611f4c60208301846110cf565b9392505050565b7f4f6e6c792074686520636f6e7472616374206f776e65722063616e207065726660008201527f6f726d207468697320616374696f6e2e00000000000000000000000000000000602082015250565b6000611faf6030836110e9565b9150611fba82611f53565b604082019050919050565b60006020820190508181036000830152611fde81611fa2565b9050919050565b7f4174206c65617374206f6e652063616e6469646174652069732072657175697260008201527f65642e0000000000000000000000000000000000000000000000000000000000602082015250565b60006120416023836110e9565b915061204c82611fe5565b604082019050919050565b6000602082019050818103600083015261207081612034565b9050919050565b60008190508160005260206000209050919050565b60006020601f8301049050919050565b600082821b905092915050565b6000600883026120d97fffffffffffffffffffffffffffffffffffffffffffffffffffffffffffffffff8261209c565b6120e3868361209c565b95508019841693508086168417925050509392505050565b6000819050919050565b600061212061211b6121168461106c565b6120fb565b61106c565b9050919050565b6000819050919050565b61213a83612105565b61214e61214682612127565b8484546120a9565b825550505050565b600090565b612163612156565b61216e818484612131565b505050565b5b818110156121925761218760008261215b565b600181019050612174565b5050565b601f8211156121d7576121a881612077565b6121b18461208c565b810160208510156121c0578190505b6121d46121cc8561208c565b830182612173565b50505b505050565b600082821c905092915050565b60006121fa600019846008026121dc565b1980831691505092915050565b600061221383836121e9565b9150826002028217905092915050565b61222c826110de565b67ffffffffffffffff81111561224557612244611669565b5b61224f8254611ab7565b61225a828285612196565b600060209050601f83116001811461228d576000841561227b578287015190505b6122858582612207565b8655506122ed565b601f19841661229b86612077565b60005b828110156122c35784890151825560018201915060208501945060208101905061229e565b868310156122e057848901516122dc601f8916826121e9565b8355505b6001600288020188555050505b505050505050565b60006123008261106c565b915061230b8361106c565b92508282026123198161106c565b915082820484148315176123305761232f611b54565b5b5092915050565b60006123428261106c565b91507fffffffffffffffffffffffffffffffffffffffffffffffffffffffffffffffff820361237457612373611b54565b5b600182019050919050565b7f3000000000000000000000000000000000000000000000000000000000000000600082015250565b60006123b5600183611c48565b91506123c08261237f565b600182019050919050565b60006123d6826123a8565b91506123e28284611c53565b91508190509291505056fea2646970667358221220f9e544eb4d614b9158cfc7002277e9ac57b0a0b8527b2650030d9a31367976a464736f6c634300081c0033",
  "linkReferences": {},
  "deployedLinkReferences": {}
}